:100000000C942A000C9447000C9447000C94470071
:100010000C9447000C9447000C9481030C94240327
:100020000C9447000C940D040C9447000C94D202DD
:100030000C9447000C9447000C9447000C94470024
:100040000C9447000C9447000C9447000C94470014
:100050000C94470011241FBECFE5D8E0DEBFCDBF12
:1000600010E0A0E6B0E0EEE1F9E002C005900D92EC
:10007000A637B107D9F720E0A6E7B0E001C01D928E
:10008000AC39B207E1F70E9469020C948D040C941C
:100090000000442379F1413009F05FC0813079F0EC
:1000A00028F08230A9F08330E1F008952AB381E08E
:1000B00090E001C0880F6A95EAF7822B2CC027B325
:1000C00081E090E001C0880F6A95EAF7822B2EC08C
:1000D00024B381E090E001C0880F6A95EAF7822B93
:1000E00030C021B381E090E001C0880F6A95EAF743
:1000F000822B32C0813089F028F08230C9F0833001
:1001000011F108952AB381E090E001C0880F6A954B
:10011000EAF7809582238ABB089527B381E090E0B7
:1001200001C0880F6A95EAF78095822387BB0895FE
:1001300024B381E090E001C0880F6A95EAF78095CA
:10014000822384BB089521B381E090E001C0880F31
:100150006A95EAF78095822381BB0895442379F15B
:10016000413009F05FC0813079F028F08230A9F089
:100170008330E1F008952BB381E090E001C0880F57
:100180006A95EAF7822B2CC028B381E090E001C089
:10019000880F6A95EAF7822B2EC025B381E090E0A4
:1001A00001C0880F6A95EAF7822B30C022B381E044
:1001B00090E001C0880F6A95EAF7822B32C0813047
:1001C00089F028F08230C9F0833011F108952BB303
:1001D00081E090E001C0880F6A95EAF7809582235C
:1001E0008BBB089528B381E090E001C0880F6A9529
:1001F000EAF78095822388BB089525B381E090E0DB
:1002000001C0880F6A95EAF78095822385BB08951F
:1002100022B381E090E001C0880F6A95EAF78095EB
:10022000822382BB0895CF93C82F40E061E081E034
:100230000E94AE0040E062E081E00E94AE0040E03B
:1002400063E081E00E94AE008BB39C2F907F8F70A3
:10025000892B8BBB41E063E081E00E94AE008FE917
:100260009FE00197F1F700C0000040E063E081E00B
:100270000E94AE002BB330E1C39FC0011124922F26
:100280009F70892B8BBB41E063E081E00E94AE0050
:100290008FE99FE00197F1F700C0000040E063E0C4
:1002A00081E00E94AE008FE19EE40197F1F700C06B
:1002B0000000CF91089541E061E081E00E94490093
:1002C00041E062E081E00E94490041E063E081E0BA
:1002D0000E94490041E064E080E00E94490041E062
:1002E00065E080E00E94490041E066E080E00E9415
:1002F000490041E067E080E00E9449002FEF81EE75
:1003000094E0215080409040E1F700C0000083E37A
:100310000E94130182E30E94130188E20E941301EC
:100320008CE00E94130181E00E94130186E00E948C
:10033000130182E00C941301CF93C82F41E061E0D8
:1003400081E00E94AE0040E062E081E00E94AE00E9
:1003500040E063E081E00E94AE008C2F807F8BBB89
:1003600041E063E081E00E94AE008FE99FE00197E9
:10037000F1F700C0000040E063E081E00E94AE00C1
:10038000C295C07FCBBB41E063E081E00E94AE003C
:100390008FE99FE00197F1F700C0000040E063E0C3
:1003A00081E00E94AE008FE19EE40197F1F700C06A
:1003B0000000CF9108950F931F93CF938C01C0E05D
:1003C000F801EC0FF11D8081882321F00E949C012F
:1003D000CF5FF6CFCF911F910F910895CF93DF9309
:1003E00000D0CDB7DEB790E8998390EC9A83FE01F8
:1003F000E80FF11D8181860F0F900F90DF91CF9153
:100400000C9413014F925F926F927F928F929F9202
:10041000AF92BF92CF92DF92EF92FF924B015C01BD
:1004200097FF0BC08DE20E949C01B094A094909421
:100430008094811C911CA11CB11C61E070E080E0E3
:1004400090E03AE0432E512C612C712C81149104E0
:10045000A104B104A9F0AAE0B0E09B01AC010E94A4
:1004600073046B017C01C501B401A30192010E94D8
:1004700054046C0D7D1D8E1D9F1D49015A01E6CF50
:100480002AE0C22ED12CE12CF12C623071058105BD
:1004900091056CF0A70196010E94540449015A018C
:1004A00080E3860F0E949C01B401C501EECFFF904E
:1004B000EF90DF90CF90BF90AF909F908F907F9004
:1004C0006F905F904F9008958F9A85B58A6685BD2D
:1004D00008950E94640289E983BD0E9473030E940B
:1004E0005B01812C82E1982E8AE7A82EB12C8091A5
:1004F0007E008330F1F78091870090918800A09171
:100500008900B0918A00C0907F00D0908000E09078
:100510008100F0908200C81AD90AEA0AFB0A4091C9
:1005200083005091840060918500709186009A014B
:10053000AB01281B390B4A0B5B0BA4E6B0E00E9411
:100540007304A70196010E94320429013A0160E078
:1005500080E00E94EE0180E690E00E94DB01C30192
:10056000B2010E94020285E20E949C0160E081E0EB
:100570000E94EE018CE690E00E94DB01C501B4010F
:10058000A70196010E943204CA01B9010E94020229
:1005900082E790E00E94DB0110927E0089B78062C2
:1005A00089BFA5CF1F920F920FB60F9211242F93E0
:1005B0003F934F935F936F937F938F939F93AF93EB
:1005C000BF93EF93FF9380917A0090917B00A0916D
:1005D0007C00B0917D000196A11DB11D80937A0031
:1005E00090937B00A0937C00B0937D004091950098
:1005F000509196006091970070919800841795072C
:10060000A607B70781F48091990082BF10927A0003
:1006100010927B0010927C0010927D00E0919A0075
:10062000F0919B000995FF91EF91BF91AF919F9140
:100630008F917F916F915F914F913F912F910F908B
:100640000FBE0F901F9018951F920F920FB60F922A
:1006500011242F933F934F935F936F937F938F93C7
:100660009F93AF93BF93EF93FF9380917600909108
:100670007700A0917800B09179000196A11DB11D7D
:100680008093760090937700A0937800B0937900E0
:1006900040918F0050919000609191007091920074
:1006A00084179507A607B70769F410927600109291
:1006B00077001092780010927900E0919300F09109
:1006C00094000995FF91EF91BF91AF919F918F9108
:1006D0007F916F915F914F913F912F910F900FBE3E
:1006E0000F901F901895BF9A8E9817BC16BC8EB5A8
:1006F00081648EBD89B7846289BF8FB780688FBFE0
:1007000008951F920F920FB60F9211242F933F93CB
:100710004F935F936F937F938F939F93AF93BF9309
:10072000EF93FF9380917E008F5F80937E00809196
:100730007E008130B9F486B597B5A0E0B0E0809333
:10074000870090938800A0938900B0938A0010924C
:100750008B0010928C0010928D0010928E008EB53E
:100760008F7B22C080917E00823001F5E6B5F7B51F
:1007700020918B0030918C0040918D0050918E0023
:10078000AFEFBFEF0E947304DC01CB018E0F9F1F00
:10079000A11DB11D8093830090938400A0938500D8
:1007A000B09386008EB580648EBD26C080917E0099
:1007B000833011F5E6B5F7B520918B0030918C00B0
:1007C00040918D0050918E00AFEFBFEF0E947304F7
:1007D000DC01CB018E0F9F1FA11DB11D80937F00F7
:1007E00090938000A0938100B09382008EB58F7BA0
:1007F0008EBD89B78F7D89BFFF91EF91BF91AF917A
:100800009F918F917F916F915F914F913F912F9128
:100810000F900FBE0F901F9018951F920F920FB65A
:100820000F9211248F939F93AF93BF9380918B006E
:1008300090918C00A0918D00B0918E000196A11D29
:10084000B11D80938B0090938C00A0938D00B0938A
:100850008E00BF91AF919F918F910F900FBE0F901F
:100860001F901895A1E21A2EAA1BBB1BFD010DC0FB
:10087000AA1FBB1FEE1FFF1FA217B307E407F50750
:1008800020F0A21BB30BE40BF50B661F771F881F2C
:10089000991F1A9469F760957095809590959B01C2
:1008A000AC01BD01CF010895052E97FB1EF4009405
:1008B0000E946B0457FD07D00E94320407FC03D04E
:1008C0004EF40C946B0450954095309521953F4F14
:1008D0004F4F5F4F089590958095709561957F4F2C
:1008E0008F4F9F4F08950E947E04A59F900DB49F47
:1008F000900DA49F800D911D11240895A29FB00119
:10090000B39FC001A39F700D811D1124911DB29F43
:0E091000700D811D1124911D0895F894FFCFE4
:10091E0044757479204379636C653A00467265714B
:06092E003A00487A0000C7
:00000001FF
