S01700004763634170706C69636174696F6E332E7372656359
S11300000C942A000C94BA000C94EA000C94E000BE
S11300100C9434000C9434000C9434000C9434008C
S11300200C9434000C9434000C9434000C9434007C
S11300300C9434000C9434000C9434000C9434006C
S11300400C9434000C9434000C9434000C9434005C
S11300500C94340011241FBECFE5D8E0DEBFCDBF21
S11300600E94B5000C94F4000C940000442379F130
S1130070413009F05FC0813079F028F08230A9F076
S11300808330E1F008952AB381E090E001C0880F45
S11300906A95EAF7822B2CC027B381E090E001C077
S11300A0880F6A95EAF7822B2EC024B381E090E092
S11300B001C0880F6A95EAF7822B30C021B381E032
S11300C090E001C0880F6A95EAF7822B32C0813034
S11300D089F028F08230C9F0833011F108952AB3F1
S11300E081E090E001C0880F6A95EAF78095822349
S11300F08ABB089527B381E090E001C0880F6A9518
S1130100EAF78095822387BB089524B381E090E0C9
S113011001C0880F6A95EAF78095822384BB08950D
S113012021B381E090E001C0880F6A95EAF78095D9
S1130130822381BB08958FB780688FBF08950E9482
S11301409B008BB780648BBF85B7816085BF85B703
S1130150826085BF089541E062E082E00C9436003D
S113016095B384E0892785BB08950E949F000E946F
S1130170AB00FFCF1F920F920FB60F9211242F9353
S11301803F934F935F936F937F938F939F93AF931B
S1130190BF93EF93FF93F8940E94B0007894FF917B
S11301A0EF91BF91AF919F918F917F916F915F91EB
S11301B04F913F912F910F900FBE0F901F90189564
S11301C01F920F920FB60F9211240F900FBE0F9033
S11301D01F9018951F920F920FB60F9211240F9033
S10F01E00FBE0F901F901895F894FFCFED
S9030000FC
