:100000000C942A000C943C000C943C000C943C0092
:100010000C943C000C943C000C943C000C943C0070
:100020000C943C000C943C000C943C000C94550146
:100030000C943C000C943C000C943C000C943C0050
:100040000C943C000C943C000C943C000C943C0040
:100050000C943C0011241FBECFE5D8E0DEBFCDBF1D
:1000600020E0A0E6B0E001C01D92A936B207E1F79A
:100070000E9446010C9408020C940000442379F17C
:10008000413009F05FC0813079F028F08230A9F06A
:100090008330E1F008952AB381E090E001C0880F39
:1000A0006A95EAF7822B2CC027B381E090E001C06B
:1000B000880F6A95EAF7822B2EC024B381E090E086
:1000C00001C0880F6A95EAF7822B30C021B381E026
:1000D00090E001C0880F6A95EAF7822B32C0813028
:1000E00089F028F08230C9F0833011F108952AB3E5
:1000F00081E090E001C0880F6A95EAF7809582233D
:100100008ABB089527B381E090E001C0880F6A950B
:10011000EAF78095822387BB089524B381E090E0BD
:1001200001C0880F6A95EAF78095822384BB089501
:1001300021B381E090E001C0880F6A95EAF78095CD
:10014000822381BB0895442379F1413009F05FC0D7
:10015000813079F028F08230A9F08330E1F0089501
:100160002BB381E090E001C0880F6A95EAF7822BFB
:100170002CC028B381E090E001C0880F6A95EAF7AF
:10018000822B2EC025B381E090E001C0880F6A95D4
:10019000EAF7822B30C022B381E090E001C0880FE3
:1001A0006A95EAF7822B32C0813089F028F08230DC
:1001B000C9F0833011F108952BB381E090E001C0C4
:1001C000880F6A95EAF7809582238BBB089528B340
:1001D00081E090E001C0880F6A95EAF7809582235C
:1001E00088BB089525B381E090E001C0880F6A952F
:1001F000EAF78095822385BB089522B381E090E0E1
:1002000001C0880F6A95EAF78095822382BB089522
:10021000813081F028F08230B9F08330F9F0089510
:100220002BB381E090E001C0880F6A95EAF782273E
:100230008BBB089528B381E090E001C0880F6A95D8
:10024000EAF7822788BB089525B381E090E001C0DA
:10025000880F6A95EAF7822785BB089522B381E06B
:1002600090E001C0880F6A95EAF7822782BB089563
:1002700041E062E082E00C943E0041E062E082E016
:100280000C94A30062E082E00C9408010E94380103
:100290000E943D010E94A40168EE73E080E090E0BE
:1002A0000E94B1010E94AD01FFCF1F920F920FB6C5
:1002B0000F9211242F933F934F935F936F937F93EC
:1002C0008F939F93AF93BF93EF93FF9380916000C1
:1002D00090916100A0916200B09163000196A11D10
:1002E000B11D8093600090936100A0936200B09371
:1002F00063004091640050916500609166007091C8
:10030000670084179507A607B70769F4809168000E
:1003100082BF1092600010926100109262001092F1
:1003200063000E944201FF91EF91BF91AF919F91B5
:100330008F917F916F915F914F913F912F910F908E
:100340000FBE0F901F90189583B783BF89B7816048
:1003500089BF8FB780688FBF089583B7856083BFDB
:1003600008950F931F939B01AC01A8EEB3E00E9488
:10037000EE018B019C014EE0369527951795079568
:100380004A95D1F7009364001093650020936600AE
:1003900030936700DC01CB0156E0B695A7959795A1
:1003A00087955A95D1F7682F61956093680062BF71
:1003B0008091640090916500A0916600B091670003
:1003C0000196A11DB11D8093640090936500A093D8
:1003D0006600B09367001F910F9108950E94F90184
:1003E000A59F900DB49F900DA49F800D911D112489
:1003F0000895A29FB001B39FC001A39F700D811DFE
:100400001124911DB29F700D811D1124911D08951D
:04041000F894FFCF8E
:00000001FF
