S010000044435F4D6F746F722E737265631D
S11300000C942A000C943C000C943C000C943C008E
S11300100C943C000C943C000C943C000C94B501F2
S11300200C943C000C943C000C943C000C94630134
S11300300C943C000C943C000C943C000C943C004C
S11300400C943C000C943C000C943C000C943C003C
S11300500C943C0011241FBECFE5D8E0DEBFCDBF19
S113006020E0A0E6B0E001C01D92A537B207E1F799
S11300700E9458010C942F020C94000041E063E0AC
S113008082E00E94760041E064E082E00E94760013
S113009041E064E083E00E9476000E940402089537
S11300A0882319F0813061F0089541E063E082E033
S11300B00E94E70040E064E082E00E94E7000895C7
S11300C040E063E082E00E94E70041E064E082E017
S11300D00E94E7000895880F982F990F990F890FB0
S11300E00E940C0208950E941C0208954423B9F151
S11300F0413009F06BC0813089F028F08230C9F0BA
S1130100833011F108952AB381E090E002C0880F92
S1130110991F6A95E2F7822B8ABB089527B381E081
S113012090E002C0880F991F6A95E2F7822B87BB83
S1130130089524B381E090E002C0880F991F6A9566
S1130140E2F7822B84BB089521B381E090E002C0E2
S1130150880F991F6A95E2F7822B81BB089581303D
S113016091F028F08230D9F0833029F108952AB330
S113017081E090E002C0880F991F6A95E2F78095AC
S113018082238ABB089527B381E090E002C0880FE0
S1130190991F6A95E2F78095822387BB089524B35B
S11301A081E090E002C0880F991F6A95E2F780957C
S11301B0822384BB089521B381E090E002C0880FBC
S11301C0991F6A95E2F78095822381BB08954423A1
S11301D0B9F1413009F06BC0813089F028F08230E8
S11301E0C9F0833011F108952BB381E090E002C08F
S11301F0880F991F6A95E2F7822B8BBB089528B369
S113020081E090E002C0880F991F6A95E2F7822B83
S113021088BB089525B381E090E002C0880F991F40
S11302206A95E2F7822B85BB089522B381E090E0C2
S113023002C0880F991F6A95E2F7822B82BB08954A
S1130240813091F028F08230D9F0833029F108957B
S11302502BB381E090E002C0880F991F6A95E2F702
S1130260809582238BBB089528B381E090E002C07F
S1130270880F991F6A95E2F78095822388BB0895B9
S113028025B381E090E002C0880F991F6A95E2F7D8
S11302908095822385BB089522B381E090E002C05B
S11302A0880F991F6A95E2F78095822382BB08958F
S11302B00E943E0080E00E94500086E00E946B0095
S11302C00E947300FFCF1F920F920FB60F9211245A
S11302D02F933F934F935F936F937F938F939F934A
S11302E0AF93BF93EF93FF93809164009091650067
S11302F0A0916600B09167000196A11DB11D809385
S1130300640090936500A0936600B09367004091E9
S11303106E0050916F0060917000709171008417AD
S11303209507A607B70781F48091720082BF1092E7
S11303306400109265001092660010926700E091CC
S11303407300F09174000995FF91EF91BF91AF9103
S11303509F918F917F916F915F914F913F912F91D9
S11303600F900FBE0F901F9018951F920F920FB60B
S11303700F9211242F933F934F935F936F937F9327
S11303808F939F93AF93BF93EF93FF9380916000FC
S113039090916100A0916200B09163000196A11D4B
S11303A0B11D8093600090936100A0936200B093AC
S11303B06300409168005091690060916A007091F7
S11303C06B0084179507A607B70769F410926000BD
S11303D0109261001092620010926300E0916C0030
S11303E0F0916D000995FF91EF91BF91AF919F91AD
S11303F08F917F916F915F914F913F912F910F90CA
S11304000FBE0F901F901895BB9A83B7886483BF63
S113041083B7806283BF089520E030E0382F36959B
S1130420279536952795ABE7B4E10E94200296956F
S1130430879581508CBF089583B7836083BF0895E7
S1130440A29FB001B39FC001A39F700D811D112411
S1130450911DB29F700D811D1124911D0895F89472
S1050460FFCFC8
S9030000FC
