S0120000536572766F4D6F746F722E73726563F2
S11300000C942A000C943C000C943C000C943C008E
S11300100C943C000C943C000C943C000C940301A4
S11300200C943C000C943C000C943C000C94B100E7
S11300300C943C000C943C000C943C000C943C004C
S11300400C943C000C943C000C943C000C943C003C
S11300500C943C0011241FBECFE5D8E0DEBFCDBF19
S113006020E0A0E6B0E001C01D92A537B207E1F799
S11300700E94A3000C94AA010C940000442379F17B
S1130080413009F05FC0813079F028F08230A9F066
S11300908330E1F008952AB381E090E001C0880F35
S11300A06A95EAF7822B2CC027B381E090E001C067
S11300B0880F6A95EAF7822B2EC024B381E090E082
S11300C001C0880F6A95EAF7822B30C021B381E022
S11300D090E001C0880F6A95EAF7822B32C0813024
S11300E089F028F08230C9F0833011F108952AB3E1
S11300F081E090E001C0880F6A95EAF78095822339
S11301008ABB089527B381E090E001C0880F6A9507
S1130110EAF78095822387BB089524B381E090E0B9
S113012001C0880F6A95EAF78095822384BB0895FD
S113013021B381E090E001C0880F6A95EAF78095C9
S1130140822381BB089541E065E083E00E943E0084
S11301500E9452016AE070E080E090E00E945D013C
S1130160FFCF1F920F920FB60F9211242F933F933C
S11301704F935F936F937F938F939F93AF93BF93AB
S1130180EF93FF938091640090916500A0916600C5
S1130190B09167000196A11DB11D809364009093F6
S11301A06500A0936600B093670040916E00509183
S11301B06F00609170007091710084179507A60715
S11301C0B70781F48091720082BF1092640010928C
S11301D065001092660010926700E0917300F09140
S11301E074000995FF91EF91BF91AF919F918F9109
S11301F07F916F915F914F913F912F910F900FBE1F
S11302000F901F9018951F920F920FB60F92112402
S11302102F933F934F935F936F937F938F939F930A
S1130220AF93BF93EF93FF9380916000909161002F
S1130230A0916200B09163000196A11DB11D80934D
S1130240600090936100A0936200B09363004091BA
S113025068005091690060916A0070916B00841786
S11302609507A607B70769F4109260001092610021
S11302701092620010926300E0916C00F0916D00A6
S11302800995FF91EF91BF91AF919F918F917F91CC
S11302906F915F914F913F912F910F900FBE0F90EF
S11302A01F9018958FB582688FBD8EB58C618EBDF9
S11302B08CE892E097BD86BD08959B01AC01ACE843
S11302C0B2E00E94900124E630E040E050E00E9459
S11302D06E01215031093BBD2ABD0895A1E21A2EB9
S11302E0AA1BBB1BFD010DC0AA1FBB1FEE1FFF1FD6
S11302F0A217B307E407F50720F0A21BB30BE40B26
S1130300F50B661F771F881F991F1A9469F760956C
S11303107095809590959B01AC01BD01CF01089526
S11303200E949B01A59F900DB49F900DA49F800DEA
S1130330911D11240895A29FB001B39FC001A39FF2
S1130340700D811D1124911DB29F700D811D11240A
S10B0350911D0895F894FFCFFC
S9030000FC
