S010000044435F4D6F746F722E737265631D
S11300000C942A000C943C000C943C000C943C008E
S11300100C943C000C943C000C943C000C9498010F
S11300200C943C000C943C000C943C000C94460151
S11300300C943C000C943C000C943C000C943C004C
S11300400C943C000C943C000C943C000C943C003C
S11300500C943C0011241FBECFE5D8E0DEBFCDBF19
S113006020E0A0E6B0E001C01D92A537B207E1F799
S11300700E9438010C9411020C94000041E063E0EA
S113008082E00E946E0041E064E082E00E946E0023
S113009041E064E083E00E946E000C94E701882351
S11300A019F0813041F0089541E063E082E00E945C
S11300B0D30040E006C040E063E082E00E94D30049
S11300C041E064E082E00C94D300880F982F990FEC
S11300D0990F890F0C94EF010C94F901442379F1E1
S11300E0413009F05FC0813079F028F08230A9F006
S11300F08330E1F008952AB381E090E001C0880FD5
S11301006A95EAF7822B2CC027B381E090E001C006
S1130110880F6A95EAF7822B2EC024B381E090E021
S113012001C0880F6A95EAF7822B30C021B381E0C1
S113013090E001C0880F6A95EAF7822B32C08130C3
S113014089F028F08230C9F0833011F108952AB380
S113015081E090E001C0880F6A95EAF780958223D8
S11301608ABB089527B381E090E001C0880F6A95A7
S1130170EAF78095822387BB089524B381E090E059
S113018001C0880F6A95EAF78095822384BB08959D
S113019021B381E090E001C0880F6A95EAF7809569
S11301A0822381BB0895442379F1413009F05FC073
S11301B0813079F028F08230A9F08330E1F008959D
S11301C02BB381E090E001C0880F6A95EAF7822B97
S11301D02CC028B381E090E001C0880F6A95EAF74B
S11301E0822B2EC025B381E090E001C0880F6A9570
S11301F0EAF7822B30C022B381E090E001C0880F7F
S11302006A95EAF7822B32C0813089F028F0823077
S1130210C9F0833011F108952BB381E090E001C05F
S1130220880F6A95EAF7809582238BBB089528B3DB
S113023081E090E001C0880F6A95EAF780958223F7
S113024088BB089525B381E090E001C0880F6A95CA
S1130250EAF78095822385BB089522B381E090E07C
S113026001C0880F6A95EAF78095822382BB0895BE
S11302700E943E0080E00E944F008AE00E946500D8
S113028084E00E9465000E946C00FFCF1F920F92D1
S11302900FB60F9211242F933F934F935F936F9355
S11302A07F938F939F93AF93BF93EF93FF9380912B
S11302B0640090916500A0916600B091670001967A
S11302C0A11DB11D8093640090936500A093660006
S11302D0B093670040916E0050916F006091700080
S11302E07091710084179507A607B70781F4809170
S11302F0720082BF10926400109265001092660032
S113030010926700E0917300F09174000995FF91D9
S1130310EF91BF91AF919F918F917F916F915F9179
S11303204F913F912F910F900FBE0F901F901895F2
S11303301F920F920FB60F9211242F933F934F9356
S11303405F936F937F938F939F93AF93BF93EF9339
S1130350FF938091600090916100A0916200B09140
S113036063000196A11DB11D80936000909361000C
S1130370A0936200B09363004091680050916900BB
S113038060916A0070916B0084179507A607B70700
S113039069F4109260001092610010926200109251
S11303A06300E0916C00F0916D000995FF91EF916D
S11303B0BF91AF919F918F917F916F915F914F9179
S11303C03F912F910F900FBE0F901F901895BB9ADD
S11303D083B7886483BF83B7806283BF089520E0B6
S11303E0982F822F64E670E00E94FD0161506CBF7B
S11303F0089583B7836083BF0895AA1BBB1B51E193
S113040007C0AA1FBB1FA617B70710F0A61BB70B80
S1130410881F991F5A95A9F780959095BC01CD0125
S10904200895F894FFCFDB
S9030000FC
