S0130000554152545F4472697665722E737265630A
S11300000C942A000C943F000C943F000C943F0085
S11300100C943F000C943F000C943F000C943F0060
S11300200C943F000C943F000C943F000C943F0050
S11300300C943F000C943F000C943F000C943F0040
S11300400C943F000C943F000C943F000C943F0030
S11300500C943F0011241FBECFE5D8E0DEBFCDBF16
S113006010E0A0E6B0E0E2E3F4E002C005900D92F7
S1130070A636B107D9F70E9401020C9417020C941A
S11300800000CF93C82F40E061E081E00E949C0112
S113009040E062E081E00E949C0140E063E081E096
S11300A00E949C018BB39C2F907F8F70892B8BBBFC
S11300B041E063E081E00E949C018FE99FE00197A9
S11300C0F1F700C0000040E063E081E00E949C0181
S11300D02BB330E1C39FC0011124922F9F70892B51
S11300E08BBB41E063E081E00E949C018FE99FE0CB
S11300F00197F1F700C0000040E063E081E00E9456
S11301009C018FE19EE40197F1F700C00000CF91BC
S1130110089541E061E081E00E94370141E062E03E
S113012081E00E94370141E063E081E00E943701F1
S113013041E064E080E00E94370141E065E080E056
S11301400E94370141E066E080E00E94370141E00F
S113015067E080E00E9437012FEF81EE94E02150A8
S113016080409040E1F700C0000083E30E9441001A
S113017082E30E94410088E20E9441008CE00E94D8
S1130180410081E00E94410086E00E94410082E03B
S11301900C944100CF93C82F41E061E081E00E94BC
S11301A09C0140E062E081E00E949C0140E063E049
S11301B081E00E949C018C2F807F8BBB41E063E037
S11301C081E00E949C018FE99FE00197F1F700C054
S11301D0000040E063E081E00E949C01C295C07F82
S11301E0CBBB41E063E081E00E949C018FE99FE08A
S11301F00197F1F700C0000040E063E081E00E9455
S11302009C018FE19EE40197F1F700C00000CF91BB
S1130210089541E061E083E00E94370140E060E03E
S113022083E00E9437018AB188618AB980B5866803
S113023080BD83E389B908958CB95D9BFECF089591
S11302400F931F93CF938C01C0E0F801EC0FF11DC5
S11302508081882321F00E941C01CF5FF6CFCF91CB
S11302601F910F9108955F9BFECF8CB10895442395
S113027079F1413009F05FC0813079F028F08230A3
S1130280A9F08330E1F008952AB381E090E001C041
S1130290880F6A95EAF7822B2CC027B381E090E09F
S11302A001C0880F6A95EAF7822B2EC024B381E03F
S11302B090E001C0880F6A95EAF7822B30C021B321
S11302C081E090E001C0880F6A95EAF7822B32C082
S11302D0813089F028F08230C9F0833011F108951B
S11302E02AB381E090E001C0880F6A95EAF780950F
S11302F082238ABB089527B381E090E001C0880F70
S11303006A95EAF78095822387BB089524B381E038
S113031090E001C0880F6A95EAF78095822384BB38
S1130320089521B381E090E001C0880F6A95EAF74F
S11303308095822381BB0895442379F1413009F0EB
S11303405FC0813079F028F08230A9F08330E1F089
S113035008952BB381E090E001C0880F6A95EAF715
S1130360822B2CC028B381E090E001C0880F6A95ED
S1130370EAF7822B2EC025B381E090E001C0880FFC
S11303806A95EAF7822B30C022B381E090E001C085
S1130390880F6A95EAF7822B32C0813089F028F001
S11303A08230C9F0833011F108952BB381E090E0DD
S11303B001C0880F6A95EAF7809582238BBB089564
S11303C028B381E090E001C0880F6A95EAF7809530
S11303D0822388BB089525B381E090E001C0880F93
S11303E06A95EAF78095822385BB089522B381E05C
S11303F090E001C0880F6A95EAF78095822382BB5A
S113040008950E94090180E690E00E9420010E9464
S113041089000E9433012FEF31EE94E021503040E7
S11304209040E1F700C000000E94CA00F2CFF894A7
S1050430FFCFF8
S109043268656C6C6F00AC
S9030000FC
