:100000000C942A000C9434000C9434000C943400AA
:100010000C9434000C9434000C9434000C94340090
:100020000C9434000C9434000C9434000C94340080
:100030000C9434000C9434000C9434000C94340070
:100040000C9434000C9434000C9434000C94340060
:100050000C94340011241FBECFE5D8E0DEBFCDBF25
:100060000E9451020C94C4020C9400003F983E9AE6
:10007000389A359A309A319A329A33983D98379A0D
:100080000895369A349BFECF64B175B144EF51E0C8
:10009000649F9001659F300D749F300D1124232FB4
:1000A00026952695FC01208311820895442379F139
:1000B000413009F05FC0813079F028F08230A9F03A
:1000C0008330E1F008952AB381E090E001C0880F09
:1000D0006A95EAF7822B2CC027B381E090E001C03B
:1000E000880F6A95EAF7822B2EC024B381E090E056
:1000F00001C0880F6A95EAF7822B30C021B381E0F6
:1001000090E001C0880F6A95EAF7822B32C08130F7
:1001100089F028F08230C9F0833011F108952AB3B4
:1001200081E090E001C0880F6A95EAF7809582230C
:100130008ABB089527B381E090E001C0880F6A95DB
:10014000EAF78095822387BB089524B381E090E08D
:1001500001C0880F6A95EAF78095822384BB0895D1
:1001600021B381E090E001C0880F6A95EAF780959D
:10017000822381BB0895442379F1413009F05FC0A7
:10018000813079F028F08230A9F08330E1F00895D1
:100190002BB381E090E001C0880F6A95EAF7822BCB
:1001A0002CC028B381E090E001C0880F6A95EAF77F
:1001B000822B2EC025B381E090E001C0880F6A95A4
:1001C000EAF7822B30C022B381E090E001C0880FB3
:1001D0006A95EAF7822B32C0813089F028F08230AC
:1001E000C9F0833011F108952BB381E090E001C094
:1001F000880F6A95EAF7809582238BBB089528B310
:1002000081E090E001C0880F6A95EAF7809582232B
:1002100088BB089525B381E090E001C0880F6A95FE
:10022000EAF78095822385BB089522B381E090E0B0
:1002300001C0880F6A95EAF78095822382BB0895F2
:10024000CF93C82F40E061E081E00E94BB0040E016
:1002500062E081E00E94BB0040E063E081E00E9438
:10026000BB008BB39C2F907F8F70892B8BBB41E0A1
:1002700063E081E00E94BB008FE99FE00197F1F706
:1002800000C0000040E063E081E00E94BB002BB3AF
:1002900030E1C39FC0011124922F9F70892B8BBB2B
:1002A00041E063E081E00E94BB008FE99FE001979D
:1002B000F1F700C0000040E063E081E00E94BB0075
:1002C0008FE19EE40197F1F700C00000CF910895FF
:1002D00041E061E081E00E94560041E062E081E09F
:1002E0000E94560041E063E081E00E94560041E038
:1002F00064E080E00E94560041E065E080E00E94FA
:10030000560041E066E080E00E94560041E067E070
:1003100080E00E9456002FEF81EE94E02150804053
:100320009040E1F700C0000083E30E94200182E3D7
:100330000E94200188E20E9420018CE00E9420019E
:1003400081E00E94200186E00E94200182E00C945E
:100350002001CF93C82F41E061E081E00E94BB0003
:1003600040E062E081E00E94BB0040E063E081E0A9
:100370000E94BB008C2F807F8BBB41E063E081E05B
:100380000E94BB008FE99FE00197F1F700C00000D9
:1003900040E063E081E00E94BB00C295C07FCBBB20
:1003A00041E063E081E00E94BB008FE99FE001979C
:1003B000F1F700C0000040E063E081E00E94BB0074
:1003C0008FE19EE40197F1F700C00000CF910895FE
:1003D0004F925F926F927F928F929F92AF92BF9255
:1003E000CF92DF92EF92FF924B015C0197FF0BC01F
:1003F0008DE20E94A901B094A09490948094811CF5
:10040000911CA11CB11C61E070E080E090E03AE03A
:10041000432E512C612C712C81149104A104B10440
:10042000A9F0AAE0B0E09B01AC010E9488026B0138
:100430007C01C501B401A30192010E9469026C0D07
:100440007D1D8E1D9F1D49015A01E6CF2AE0C22E57
:10045000D12CE12CF12C62307105810591056CF0F5
:10046000A70196010E94690249015A0180E3860FA3
:100470000E94A901B401C501EECFFF90EF90DF907B
:10048000CF90BF90AF909F908F907F906F905F9034
:100490004F90089581E00C9420010C9436000C9448
:1004A0004100CF93DF9300D0CDB7DEB71A82198217
:1004B0000E9468010E944D02CE0101960E944F02E7
:1004C0000E944A0269817A8180E090E00E94E801FE
:1004D000F3CF052E97FB1EF400940E94800257FD77
:1004E00007D00E94930207FC03D04EF40C948002C4
:1004F00050954095309521953F4F4F4F5F4F089550
:1005000090958095709561957F4F8F4F9F4F08957F
:100510000E94B502A59F900DB49F900DA49F800DE1
:10052000911D11240895A1E21A2EAA1BBB1BFD01E7
:100530000DC0AA1FBB1FEE1FFF1FA217B307E407C2
:10054000F50720F0A21BB30BE40BF50B661F771F1A
:10055000881F991F1A9469F76095709580959095FA
:100560009B01AC01BD01CF010895A29FB001B39FD3
:10057000C001A39F700D811D1124911DB29F700DAC
:0C058000811D1124911D0895F894FFCFF7
:00000001FF
