:100000000C942A000C9447000C9447000C94470071
:100010000C9447000C9447000C94C2030C946503A5
:100020000C9447000C944F040C9447000C94130359
:100030000C9447000C9447000C9447000C94470024
:100040000C9447000C9447000C9447000C94470014
:100050000C94470011241FBECFE5D8E0DEBFCDBF12
:1000600010E0A0E6B0E0E2EAF9E002C005900D92EF
:10007000A637B107D9F720E0A6E7B0E001C01D928E
:10008000AC39B207E1F70E94A5020C94CF040C949E
:1000900000004423B9F1413009F06BC0813089F090
:1000A00028F08230C9F0833011F108952AB381E03D
:1000B00090E002C0880F991F6A95E2F7822B8ABBF5
:1000C000089527B381E090E002C0880F991F6A95D8
:1000D000E2F7822B87BB089524B381E090E002C051
:1000E000880F991F6A95E2F7822B84BB089521B38C
:1000F00081E090E002C0880F991F6A95E2F7822B99
:1001000081BB0895813091F028F08230D9F083309E
:1001100029F108952AB381E090E002C0880F991F69
:100120006A95E2F7809582238ABB089527B381E020
:1001300090E002C0880F991F6A95E2F780958223AC
:1001400087BB089524B381E090E002C0880F991F17
:100150006A95E2F78095822384BB089521B381E0FC
:1001600090E002C0880F991F6A95E2F7809582237C
:1001700081BB08954423B9F1413009F06BC081304F
:1001800089F028F08230C9F0833011F108952BB343
:1001900081E090E002C0880F991F6A95E2F7822BF8
:1001A0008BBB089528B381E090E002C0880F991FAF
:1001B0006A95E2F7822B88BB089525B381E090E031
:1001C00002C0880F991F6A95E2F7822B85BB0895BC
:1001D00022B381E090E002C0880F991F6A95E2F790
:1001E000822B82BB0895813091F028F08230D9F0C3
:1001F000833029F108952BB381E090E002C0880F8D
:10020000991F6A95E2F7809582238BBB089528B3E6
:1002100081E090E002C0880F991F6A95E2F780950F
:10022000822388BB089525B381E090E002C0880F47
:10023000991F6A95E2F78095822385BB089522B3C2
:1002400081E090E002C0880F991F6A95E2F78095DF
:10025000822382BB0895CF93C82F40E061E081E004
:100260000E94BA0040E062E081E00E94BA0040E0F3
:1002700063E081E00E94BA008BB39C2F907F8F7067
:10028000892B8BBB41E063E081E00E94BA008FE9DB
:100290009FE00197F1F700C0000040E063E081E0DB
:1002A0000E94BA002BB330E1C39FC0011124922FEA
:1002B0009F70892B8BBB41E063E081E00E94BA0014
:1002C0008FE99FE00197F1F700C0000040E063E094
:1002D00081E00E94BA008FE19EE40197F1F700C02F
:1002E0000000CF91089541E061E081E00E94490063
:1002F00041E062E081E00E94490041E063E081E08A
:100300000E94490041E064E080E00E94490041E031
:1003100065E080E00E94490041E066E080E00E94E4
:10032000490041E067E080E00E9449002FEF81EE44
:1003300094E0215080409040E1F700C0000083E34A
:100340000E942B0182E30E942B0188E20E942B0174
:100350008CE00E942B0181E00E942B0186E00E942C
:100360002B0182E00E942B010895CF93C82F41E01A
:1003700061E081E00E94BA0040E062E081E00E941A
:10038000BA0040E063E081E00E94BA008C2F807FD9
:100390008BBB41E063E081E00E94BA008FE99FE0FF
:1003A0000197F1F700C0000040E063E081E00E94A7
:1003B000BA00C295C07FCBBB41E063E081E00E9400
:1003C000BA008FE99FE00197F1F700C0000040E01C
:1003D00063E081E00E94BA008FE19EE40197F1F7AB
:1003E00000C00000CF9108950F931F93CF93FC019D
:1003F0008081882359F08F01C0E00E94B501CF5F52
:10040000F801EC0FF11D80818111F7CFCF911F9181
:100410000F910895CF93DF9300D0CDB7DEB790E86A
:10042000998390EC9A83FE01E80FF11D8181860F7C
:100430000E942B010F900F90DF91CF9108954F9262
:100440005F926F927F928F929F92AF92BF92CF9264
:10045000DF92EF92FF926B017C0199235CF48DE2B5
:100460000E94B501F094E094D094C094C11CD11CBA
:10047000E11CF11C1C141D041E041F040CF053C0CD
:1004800061E070E080E090E00F2EFAE08F2E912C7A
:10049000A12CB12CF02DDC01CB01880F991FAA1FD4
:1004A000BB1F2C013D01440C551C661C771C440CE1
:1004B000551C661C771C480E591E6A1E7B1EC70100
:1004C000B601A50194010E949604640D751D861D58
:1004D000971DC22ED32EE42EF52E1C141D041E04CF
:1004E0001F04CCF26230710581059105E4F00F2EF6
:1004F000FAE08F2E912CA12CB12CF02DA5019401A6
:100500000E949604C22ED32EE42EF52E80E3860F91
:100510000E94B5016C2D7D2D8E2D9F2D62307105B1
:10052000810591055CF7FF90EF90DF90CF90BF9031
:10053000AF909F908F907F906F905F904F900895B5
:100540008F9A85B58A6685BD08950E9473010E94C1
:10055000A00283E383BD0E94B40381E60E94B5013B
:100560000F2E812CF2E19F2EFAE7AF2EB12CF02D49
:1005700080917E008330F1F7809187009091880010
:10058000A0918900B0918A00C0907F00D090800037
:10059000E0908100F0908200C81AD90AEA0AFB0AAA
:1005A0004091830050918400609185007091860095
:1005B0009A01AB01281B390B4A0B5B0BA4E6B0E098
:1005C0000E94C404A70196010E94740429013A0103
:1005D00060E080E00E940A0280E690E00E94F40160
:1005E000C301B2010E941F0285E20E94B50160E0D2
:1005F00081E00E940A028CE690E00E94F401C501AD
:10060000B401A70196010E947404CA01B9010E94B5
:100610001F0282E790E00E94F40110927E0089B7E9
:10062000806289BFA5CF1F920F920FB60F9211243F
:100630002F933F934F935F936F937F938F939F93EA
:10064000AF93BF93EF93FF9380917A0090917B00DB
:10065000A0917C00B0917D000196A11DB11D8093F9
:100660007A0090937B00A0937C00B0937D00409132
:1006700095005091960060919700709198008417B2
:100680009507A607B70781F48091990082BF109261
:100690007A0010927B0010927C0010927D00E09115
:1006A0009A00F0919B000995FF91EF91BF91AF9156
:1006B0009F918F917F916F915F914F913F912F917A
:1006C0000F900FBE0F901F9018951F920F920FB6AC
:1006D0000F9211242F933F934F935F936F937F93C8
:1006E0008F939F93AF93BF93EF93FF938091760087
:1006F00090917700A0917800B09179000196A11DAA
:10070000B11D8093760090937700A0937800B0930A
:10071000790040918F00509190006091910070910C
:10072000920084179507A607B70769F41092760020
:10073000109277001092780010927900E091930067
:10074000F09194000995FF91EF91BF91AF919F9126
:100750008F917F916F915F914F913F912F910F906A
:100760000FBE0F901F901895BF9A8E9817BC16BC9D
:100770008EB581648EBD89B7846289BF8FB780686A
:100780008FBF08951F920F920FB60F9211242F93CF
:100790003F934F935F936F937F938F939F93AF9309
:1007A000BF93EF93FF9380917E008F5F80937E00D5
:1007B00080917E008130C1F486B597B5A0E0B0E0AD
:1007C0008093870090938800A0938900B0938A005B
:1007D00010928B0010928C0010928D0010928E005F
:1007E0008EB58F7B8EBD4AC080917E00823001F530
:1007F000E6B5F7B520918B0030918C0040918D00CB
:1008000050918E00AFEFBFEF0E94C404DC01CB011A
:100810008E0F9F1FA11DB11D8093830090938400B4
:10082000A0938500B09386008EB580648EBD26C0EF
:1008300080917E00833011F5E6B5F7B520918B00ED
:1008400030918C0040918D0050918E00AFEFBFEF42
:100850000E94C404DC01CB018E0F9F1FA11DB11D9E
:1008600080937F0090938000A0938100B0938200DA
:100870008EB58F7B8EBD89B78F7D89BFFF91EF913C
:10088000BF91AF919F918F917F916F915F914F91A8
:100890003F912F910F900FBE0F901F9018951F92B0
:1008A0000F920FB60F9211248F939F93AF93BF9324
:1008B00080918B0090918C00A0918D00B0918E0062
:1008C0000196A11DB11D80938B0090938C00A09385
:1008D0008D00B0938E00BF91AF919F918F910F903B
:1008E0000FBE0F901F901895A1E21A2EAA1BBB1BDA
:1008F000FD010DC0AA1FBB1FEE1FFF1FA217B307EC
:10090000E407F50720F0A21BB30BE40BF50B661F01
:10091000771F881F991F1A9469F7609570958095C5
:1009200090959B01AC01BD01CF010895052E97FB69
:100930001EF400940E94AD0457FD07D00E94740479
:1009400007FC03D04EF40C94AD04509540953095BF
:1009500021953F4F4F4F5F4F08959095809570952B
:1009600061957F4F8F4F9F4F0895A29FB001B39F16
:10097000C001A39F700D811D1124911DB29F700DA8
:10098000811D1124911D08950E94B504A59F900D0D
:10099000B49F900DA49F800D911D11240895F8948B
:0209A000FFCF87
:1009A20044757479204379636C653A0046726571C7
:0609B2003A00487A000043
:00000001FF
